:03000000020052A9
:0300030002009B5D
:03000B000200925E
:030013000200B632
:030023000200BB1D
:100030004E6220746F7572203D20302020202020D9
:1000400000473D3020433D3020443D3020202020DB
:10005000200075812F12005A80FE757C00757B0090
:10006000C200C290C294C293D292C291757F307581
:100070007E30757D307F2F7598407589217587009A
:10008000758DE6758BE67588451201A7D2B875A8FF
:100090009722D292C291C200C28C32C0E0C2AFC2DB
:1000A00093D294C294B290740A60061412021F8014
:1000B000F880F2D0E032D29CD29032C0D0C0F0C0F2
:1000C000E0C298E599A2E792F0547FF57BA2D09226
:1000D000F1B2F1A2F0B0F192D5A2F1B0F072D54038
:1000E0005630000AC28C758C02758A18D28CB57C89
:1000F00003020137B4560612013E020134B452061F
:10010000120147020134B44706120163020134B4FC
:100110004306120174020134B4440612018502013F
:1001200034B44110120196E57CB44708D292C291D2
:10013000C28CC200857B7CD0E0D0F0D0D032C2909F
:10014000D293D294C29422C0E0D2900F748A120249
:1001500011EF120203BF3302C2ACC293D294C29415
:10016000D0E022C0E0057F74C2120211E57F1202C6
:1001700003D0E022C0E0057E74C6120211E57E12B3
:100180000203D0E022C0E0057D74CA120211E57DB1
:10019000120203D0E022C292D291D200C28C758C9E
:1001A00002758A18D28C221201DC7480120211901E
:1001B00000301201F474C01202119000411201F4D7
:1001C00022C0E07580FFC2A7D2A6C2A57428D5E0E0
:1001D000FDD2A5002087F3C2A5D0E022C0E08500B3
:1001E000808500A012021F7438120211740C1202D2
:1001F00011D0E022C0E0E4936006120203A380F66F
:10020000D0E0221201C1D2A7C2A6F580D2A5C2A514
:10021000221201C1C2A7C2A6F580D2A5C2A522782A
:080220006479FFD9FED8FA222F
:00000001FF
